:020000040800F2
:1000000038100020290D0008FD100008FF1000081E
:1000100003110008071100080B1100080000000080
:100020000000000000000000000000000F110008A8
:10003000111100080000000013110008151100083C
:10004000430D0008430D0008430D0008430D000850
:10005000430D0008430D0008430D0008430D000840
:10006000430D0008430D0008430D0008430D000830
:10007000430D0008430D0008430D0008430D000820
:10008000430D0008430D0008430D0008430D000810
:10009000430D0008430D0008430D0008430D000800
:1000A000430D0008430D0008430D0008430D0008F0
:1000B000430D0008430D0008430D0008430D0008E0
:1000C000430D0008430D0008430D0008430D0008D0
:1000D000430D00081D110008E511000887120008F3
:1000E000430D0008430D0008430D0008430D0008B0
:1000F000430D0008430D0008430D0008430D0008A0
:10010000430D0008430D0008430D0008430D00088F
:10011000430D0008430D0008430D0008430D00087F
:10012000430D0008430D0008430D0008430D00086F
:10013000DFF80CD002F028FA004800474D0D000807
:100140003810002031490143314A1160704770B5C1
:10015000002100230F22C47804B32D4C246804F43A
:10016000E064C4F5E064210AC1F10403CA404478A4
:1001700004FA03F18478144021430901254C0678E0
:10018000A155047804F01F050124AC4005786D11D9
:10019000AD0005F1E025C5F8004109E0047804F060
:1001A0001F050124AC401C4D0678761145F8264009
:1001B00070BD1A4A0A400243154B1B1F1A60704754
:1001C00039B1134A121D12680243114B1B1D1A60EC
:1001D00006E00F4A121D126882430D4B1B1D1A6068
:1001E0007047042808D14FF0E021096941F004016B
:1001F0004FF0E022116107E04FF0E021096921F0A2
:1002000004014FF0E0221161704700000000FA0580
:100210000CED00E000E400E080E100E080FFFF1F63
:1002200010B50446CC48844208D10121042000F0D6
:100230002DFB0021042000F029FB46E0C748844242
:1002400008D10121082000F021FB0021082000F046
:100250001DFB3AE0C248844208D10121102000F081
:1002600015FB0021102000F011FB2EE0BD48844258
:1002700008D10121202000F009FB0021202000F0FE
:1002800005FB22E0B848844208D10121402000F05B
:10029000FDFA0021402000F0F9FA16E0B34884424C
:1002A00008D10121802000F0F1FA0021802000F027
:1002B000EDFA0AE0AE48844207D10121801500F032
:1002C000E5FA0021A01500F0E1FA10BD10B50121FA
:1002D000084600F0DBFA0021012000F0D7FA10BD3B
:1002E0002DE9F041024600250026002000230024CD
:1002F000002791F803C00CF00F0591F803C00CF033
:10030000100CBCF1000F03D091F802C04CEA0505B7
:1003100091F800C0BCF1000F31D0146800202BE030
:100320004FF0010C0CFA00F3B1F800C00CEA030620
:100330009E4220D183004FF00F0C0CFA03F7BC4310
:1003400005FA03FC4CEA040491F803C0BCF1280F41
:1003500006D14FF0010C0CFA00FCC2F814C00AE000
:1003600091F803C0BCF1480F05D14FF0010C0CFA15
:1003700000FCC2F810C0401C0828D1D31460B1F8AA
:1003800000C0BCF1FF0F34DD546800202EE000F106
:10039000080C4FF0010808FA0CF3B1F800C00CEAA1
:1003A00003069E4221D183004FF00F0C0CFA03F795
:1003B000BC4305FA03FC4CEA040491F803C0BCF109
:1003C000280F05D100F1080C08FA0CF8C2F81480C7
:1003D00091F803C0BCF1480F07D100F1080C4FF0B1
:1003E000010808FA0CF8C2F81080401C0828CED387
:1003F0005460BDE8F0814FF6FF71018002218170E9
:100400000421C17070470246002093680B400BB175
:10041000012000E0002070470146886880B27047E4
:1004200002460020D3680B400BB1012000E0002001
:1004300070470146C86880B27047016170474161EA
:1004400070470AB1016100E041617047C1607047C7
:100450004FF480320A4382618161826182698269DC
:10046000704702460020434B18684FF680731840CF
:1004700040EA021008433F4B186070473E49C8618C
:100480007047F0B50A46002300240021002500F043
:100490000046B6F1004F02D1364EF16901E0354E0B
:1004A0007168C0F3034583B200F44016B6F5401FEF
:1004B00008D121F070612F4E766826F070662D4FBE
:1004C0007E6012E000F48016B6F5801F06D1032688
:1004D00006FA05F4A14341F0706106E0460D3601CD
:1004E00003FA06F6B14341F0706122B1460D3601C0
:1004F00003FA06F6314300F00046B6F1004F02D190
:100500001C4EF16101E01B4E7160F0BD30B5002260
:100510008B071C0F0F2303FA04F2164B08338C10C1
:1005200053F824309343134C08348D1044F825308D
:1005300023468C1053F824308C07240F00FA04F45F
:1005400023430C4C08348D1044F8253030BD0A4943
:10055000DC3108607047000000080140000C0140D9
:10056000001001400014014000180140001C01402F
:10057000002001400000014000002042DF480068E8
:1005800040F00100DD49086008464068DC49084049
:10059000DA49486008460068DA490840D7490860E7
:1005A0000846006820F4802008600846406820F46F
:1005B000FE0048604FF41F0088607047CF4909680B
:1005C00021F48031CD4A11601146096821F480215F
:1005D0001160B0F5803F03D0B0F5802F0ED106E05A
:1005E000C649096841F48031C44A116007E0C34933
:1005F000096841F4A021C14A116000E000BF00BFBA
:10060000704710B501460022002300204A11012A3C
:1006100002D1BA4C236806E0022A02D1B74C236A01
:1006200001E0B64C636A01F01F02012494401C40B3
:100630000CB1012000E0002010BD38B50020009072
:100640000024002500BF3120FFF7DBFF054600989E
:10065000401C00900098B0F5A06F01D0002DF2D0A2
:100660003120FFF7CEFF08B1012400E0002420462E
:1006700038BD01460020A14A106820F0F80040EA89
:10068000C10010607047A049086070470246002012
:100690009A4B586820F47C1042EA01031843974BA8
:1006A0005860704798490866704701460020934A91
:1006B000506820F003000843506070478F4840683E
:1006C00000F00C007047014600208C4A506820F072
:1006D000F00008435060704701460020874A506888
:1006E00020F4E06008435060704701460020834AD0
:1006F000506820F4605040EAC1005060704729B152
:100700007E4A527A02437D4B5A7204E07B4A527A07
:1007100082437A4B5A7270477B49D83108607047E0
:1007200001460020754A506820F44040084350605C
:1007300070470021714A20321170704A82F82010EF
:10074000012802D004280AD104E001216B4A20329A
:10075000117005E00521694A2032117000E000BFE8
:1007600000BF70476949086070476449096A0143DE
:10077000624A11627047654944390860704730B574
:1007800000210022002400235C4D6D6805F00C015F
:1007900021B1042905D0082923D105E05C4D05606D
:1007A00022E05B4D05601FE0544D6D6805F470124A
:1007B000524D6D6805F48034022505EB92421CB958
:1007C000544D554305600BE04C4D6D6805F4003504
:1007D0001DB1504D5543056002E04D4D5543056038
:1007E00002E04B4D056000BF00BF444D6D6805F051
:1007F000F0010909484D6B5C0568DD4045603F4DDF
:100800006D6805F4E061090A434D6B5C4568DD40A5
:1008100085603A4D6D6805F46051C90A3E4D6B5CC8
:100820004568DD40C560354D6D6805F44041890B74
:100830003A4D6B5CC568B5FBF3F5056130BD29B178
:100840002E4A526902432D4B5A6104E02B4A5269E9
:1008500082432A4B5A61704729B1284A9269024360
:10086000264B9A6104E0254A92698243234B9A61A0
:10087000704729B1214AD2690243204BDA6104E072
:100880001E4AD26982431D4BDA61704729B11B4A67
:10089000D2680243194BDA6004E0184AD2688243F6
:1008A000164BDA60704729B1144A12690243134BA0
:1008B0001A6104E0114A12698243104B1A617047B1
:1008C00012494039086070470F49C86470470B49A6
:1008D000C87170470948406A40F080700749486213
:1008E000704701460020054A92680A400AB101207B
:1008F00000E00020704701498872704700100240F4
:100900000000FFF8FFFFF6FE000042428004424272
:1009100000127A0000093D000000002010000020B5
:1009200010B50446FB48844209D101218803FFF732
:10093000ADFF00214FF48040FFF7A8FF32E0F648FA
:10094000844209D101214804FFF7ADFF00214FF493
:100950000030FFF7A8FF25E0F048844209D10121CB
:100960008804FFF7A0FF00214FF48020FFF79BFFD2
:1009700018E0EB48844209D10121C804FFF793FF36
:1009800000214FF40020FFF78EFF0BE0E548844282
:1009900008D101210805FFF786FF00214FF48010E0
:1009A000FFF781FF10BD2DE9F04786B005460E46E2
:1009B0000024A24600BFA1460027B08900B100BFB5
:1009C0002F462C8A4CF6FF700440F08804432C829A
:1009D000AC894EF6F3100440B08831890843718920
:1009E00008430443AC81AC8A4FF6FF400440B08911
:1009F0000443AC8201A8FFF7C2FEC648874202D179
:100A0000DDF810A001E0DDF80CA0A88900F400409A
:100A100040B10AEBCA0000EB0A1031684900B0FB94
:100A2000F1F807E00AEBCA0000EB0A103168890010
:100A3000B0FBF1F86420B8FBF0F004012009642158
:100A400001FB1089A88900F4004040B1322000EB7E
:100A5000C900B0FBF1F000F00700044308E03220C9
:100A600000EB09106421B0FBF1F000F00F0004432B
:100A70002C8106B0BDE8F0874FF4165101600021CB
:100A80008180C18001810C214181002181817047D9
:100A900010B502460020108A4FF2FF0318400B8861
:100AA0004C8823438C882343CC88234318431082EB
:100AB00010BD0021018041808180C180704721B13B
:100AC000828942F40052828104E082894DF6FF73EC
:100AD0001A4082817047F0B50346002400260025A5
:100AE000002040F66A17B94200D100BF1846C1F392
:100AF000421401F01F06012707FA06F5012C01D167
:100B00000C3004E0022C01D1103000E014301AB196
:100B100007682F43076002E00768AF430760F0BD36
:100B20001AB1838A0B43838202E0838A8B438382D8
:100B30007047028A4FF6F0731A400282028A0A4313
:100B40000282704782894FF2FF731A408281828944
:100B50000A438281704721B1828942F00202828178
:100B600004E082894FF6FD731A4082817047028A41
:100B70004FF6DF731A400282028A0A4302827047EC
:100B800021B1028A42F48042028204E0028A4BF6DA
:100B9000FF731A4002827047C1F3080282807047D7
:100BA00001468888C0F308007047818941F001013F
:100BB00081817047028BD2B20283028B42EA01220A
:100BC00002837047028B02F47F420283028B0A4346
:100BD0000283704721B1828A42F02002828204E0BF
:100BE000828A4FF6DF731A408282704721B1828A6F
:100BF00042F01002828204E0828A4FF6EF731A40BC
:100C00008282704721B1828A42F00802828204E027
:100C1000828A4FF6F7731A408282704721B1828927
:100C200042F40042828103E08289C2F30E02828193
:100C3000704721B1828A42F40062828204E0828A93
:100C40004FF2FF731A4082827047828A4FF6FB731D
:100C50001A408282828A0A438282704721B1828A44
:100C600042F00202828204E0828A4FF6FD731A404B
:100C70008282704702460020B1F5007F00D100BF9C
:100C800013880B400BB1012000E00020704701F4F5
:100C90000072B2F5007F00D100BFCA4302807047E6
:100CA00070B50246002400230025002040F66A1695
:100CB000B14200D100BFC1F3421501F01F0301266C
:100CC00006FA03F3012D02D19689334006E0022D86
:100CD00002D1168A334001E0968A33400C12012675
:100CE00006FA04F41688344013B10CB1012000E078
:100CF000002070BD10B50022002340F66A14A14206
:100D000000D100BF0A1201249440A3B2DC43048046
:100D100010BD000000380140004400400048004081
:100D2000004C0040005000400648804706480047FD
:100D3000FEE7FEE7FEE7FEE7FEE7FEE7FEE7FEE78B
:100D4000FEE7FEE79F23000831010008ADF58E6D38
:100D50000020CDF86404CDF86804CDF86C040027B9
:100D60004FF4806119A801F0BAFB6421684601F0D4
:100D7000B6FB01F0DDF901F057FA01F06FF900F070
:100D800050FB00F01FFC00F0B1FBBEA2BFA1002091
:100D900000F0CAFC022000F031FC00BFBDA000F052
:100DA000E8FE0028FAD000BF0022BEA1C0A000F0DB
:100DB0005AFC0028F8D0012000F06AFC00BFB1A264
:100DC000B2A1012000F0B0FC0028F8D01421684640
:100DD00000F0CEFD684601F09FFB814600234A46A5
:100DE0006946184600F00DFEB448B0F800046FF3F1
:100DF0000E00B249A1F800040846B0F8000420F43F
:100E00000040A1F80004AE48B0F800046FF30E00F3
:100E1000AB49A1F800040846B0F8000420F40040F3
:100E2000A1F80004A748B0F800046FF30E00A5492C
:100E3000A1F800040846B0F8000420F40040A1F82E
:100E400000040FE19D48B0F80004C00B002869D0F1
:100E5000002240F225519C48FFF73DFE00209749B3
:100E6000B1F80014C1F30E01944A505497A11046F2
:100E700001F040FB054696A1904801F03BFB0600BF
:100E800003D07079303800F0FF086878AA2802D0C3
:100E90006878AB282CD1012422E0285D40B9601E7F
:100EA000285C552803D0601E285CBA2800D11EE0BB
:100EB000295D8948FFF770FE00BF80218648FFF753
:100EC000D9FE0028F9D0295D8448FFF765FE00BFF0
:100ED00080218248FFF7CEFE0028F9D0601CC4B202
:100EE0007648B0F80004C0F30E00A042D5DA04E062
:100EF0002A467BA1784800F01AFF7048B0F8000439
:100F00006FF30E006D49A1F800040846B0F8000424
:100F100020F40040A1F80004012240F225516A4863
:100F2000FFF7D9FD6648B0F80004C00B002849D08F
:100F3000002240F225516848FFF7CDFD6048B0F827
:100F40000004C7B24FF480625D4919A801F0AEFAFF
:100F50003B46424663A1684601F058FB4FF4967346
:100F6000002265A1684600F06CFA88B100240DE00B
:100F700019A8015D5448FFF70FFE00BF80215248B9
:100F8000FFF778FE0028F9D0601CC4B2BC42EFDB4A
:100F90004FF4806119A801F0A2FA4948B0F80004A2
:100FA0006FF30E004649A1F800040846B0F80004AB
:100FB00020F40040A1F80004012240F225514648E7
:100FC000FFF789FD3F48B0F80004C00B002849D066
:100FD000002240F225514148FFF77DFD3948B0F825
:100FE0000004C7B24FF48062364919A801F05EFAD6
:100FF0003B4642463BA1684601F008FB4FF496731E
:1010000000223DA1684600F01CFA88B100240DE0E2
:1010100019A8015D2C48FFF7BFFD00BF80212A48B9
:10102000FFF728FE0028F9D0601CC4B2BC42EFDBF9
:101030004FF4806119A801F052FA2248B0F8000478
:101040006FF30E001F49A1F800040846B0F8000431
:1010500020F40040A1F80004012240F225511F486D
:10106000FFF739FDEEE60020002107E001E04A1C11
:1010700091B2B1F5806FFADB421C90B2B0F5806F8F
:10108000F4DB70473138303000000000383839392F
:101090000000000031302E31302E3130302E32350C
:1010A0003400000031323334353637380000000068
:1010B0006D696E6757494649000000003000002006
:1010C0003204002034080020004800403A000000AC
:1010D0002B4950442C0000000038014000440040DF
:1010E0002573000041542B43495053454E443D2540
:1010F000642C2564000000003E200000704700BF03
:10110000FEE700BFFEE700BFFEE700BFFEE7704757
:101110007047704710B500F0E8FF10BD38B59DF876
:101120000000009040F225517948FFF7B9FDD8B191
:101130007748FFF735FDC4B27648B0F80004C0F335
:101140000E0040F2FF3188420EDA7249B1F8001405
:10115000C1F30E00411C6F4AB2F8002461F30E0285
:101160006C49A1F800240C5440F224416848FFF770
:1011700097FD012835D16748B0F80004C0F30E0090
:10118000052825DD6348B0F80004C0F30E00401EBA
:101190006049085C552811D00846B0F80004C0F337
:1011A0000E00801E085C552808D00846B0F80004E0
:1011B000C0F30E00C01E085C552809D15548B0F890
:1011C000000420F4004000F500405249A1F800045A
:1011D0004F480088C0B200904D48001D0088C0B242
:1011E000009038BD38B59DF80000009040F22551C0
:1011F0004948FFF755FDD8B14748FFF7D1FCC4B2C5
:101200004648B0F80004C0F30E0040F2FF318842B7
:101210000EDA4249B1F80014C1F30E00411C3F4AF6
:10122000B2F8002461F30E023C49A1F800240C54EA
:1012300040F224413848FFF733FD012822D13748D6
:10124000B0F80004C0F30E00052812DD3348B0F8F2
:101250000004C0F30E00401E3049085C552808D138
:101260000846B0F8000420F4004000F50040A1F862
:10127000000429480088C0B200902748001D00885B
:10128000C0B2009038BD38B59DF80000009040F223
:1012900025512348FFF704FDD8B12148FFF780FC12
:1012A000C4B22048B0F80004C0F30E0040F2FF3191
:1012B00088420EDA1B49B1F80014C1F30E00411C3C
:1012C000184AB2F8002461F30E021649A1F800246E
:1012D0000C5440F224411248FFF7E2FC012816D1D9
:1012E0001048B0F8000420F4004000F500400D491B
:1012F000A1F800040A48FFF753FCC4B2084800886C
:10130000C0B200900648001D0088C0B2009038BDF1
:10131000003801403204002000440040340800201E
:10132000004800403000002008B54FF4A060FEF7F0
:1013300009FF27208DF8000001208DF801008DF8AD
:1013400002008DF803006846FEF701FF08BD00B5F6
:1013500085B001218804FFF78CFA01210820FFF7EE
:101360007BFA4FF48060ADF8100018208DF8130060
:1013700003208DF8120004A9FE48FEF7B1FF4FF4D8
:101380000060ADF8100004208DF8130004A9F9489E
:10139000FEF7A6FF4FF4E13000900020ADF8040006
:1013A000ADF80600ADF80800ADF80C000C20ADF863
:1013B0000A006946F048FFF7F6FA012240F225518B
:1013C000ED48FFF788FB012240F22441EA48FFF78D
:1013D00082FBFFF7A9FF0121E748FFF770FB05B08B
:1013E00000BD08B501210820FFF736FA4FF48070E0
:1013F000ADF8000010208DF8030003208DF80200E6
:101400006946DC48FEF76CFF01210820FFF724FA4B
:101410004FF40070ADF800006946D648FEF760FF53
:1014200008BD10B5FFF7DDFFFFF791FF4FF4007126
:10143000D048FFF702F84FF48071CE48FEF7FFFF67
:1014400010BD2DE9F04106460C4615461F46CB4817
:10145000B0F800046FF30E00C849A1F8000432464A
:10146000C7A1C54800F063FC1CB915B90120BDE84F
:10147000F0814FF47A7107FB01F000F024FE0020A8
:10148000BE49B1F80014C1F30E01BC4A50541146D4
:10149000BDA001F0ABF8B4B1ADB12146B74801F041
:1014A00029F808B1012000E0002040B92946B348DE
:1014B00001F020F808B1012000E0002008B101206F
:1014C000D5E70020D3E744B12146AC4801F012F83B
:1014D00008B10120CBE70020C9E72946A74801F061
:1014E00009F808B10120C2E70020C0E710B540F6B6
:1014F000C413A6A2A7A1A8A0FFF7A3FF10BD2DE9C2
:10150000F0470746884614461D46DDF820909B4864
:10151000B0F800046FF30E009849A1F8000400260B
:101520000CE0B95D9448FFF737FB00BF802192487B
:10153000FFF7A0FB0028F9D0701CC6B24645F0DBCF
:101540001CB915B90120BDE8F0874FF47A7109FB89
:1015500001F000F0B8FD00208849B1F80014C1F393
:101560000E01864A5054114687A001F03FF8B4B1ED
:10157000ADB12146814800F0BDFF08B1012000E077
:10158000002040B929467D4800F0B4FF08B1012091
:1015900000E0002008B10120D5E70020D3E744B1E6
:1015A0002146764800F0A6FF08B10120CBE70020D5
:1015B000C9E72946714800F09DFF08B10120C2E744
:1015C0000020C0E710B500244FF400716948FEF711
:1015D00034FF734800F077FD0CE04FF4FA730022FB
:1015E0006CA170A0FFF72DFF00B110BDFFF77EFFCB
:1015F000601CC4B20A2CF0DB00BFF6E710B504464D
:1016000024B1012C0AD0022C18D10FE040F6C413EB
:1016100065A260A167A0FFF714FF10BD40F6C413D8
:1016200061A25CA166A0FFF70CFFF6E740F6C413C9
:101630005DA258A165A0FFF704FFEEE70020ECE7EC
:1016400030B59FB004460D462B46224662A101A844
:1016500000F0DCFF41F2883300224EA101A8FFF721
:10166000F0FE1FB030BD70B5A0B004460D46164662
:101670002B4622465DA102A8009600F0C7FF4FF45A
:101680007A73002243A102A8FFF7DBFE20B070BDF1
:1016900010B586B004460CB1012000E000200246DF
:1016A00059A101A800F0B2FF4FF4FA73002239A14A
:1016B00001A8FFF7C6FE06B010BDF0B5B9B00646EA
:1016C0000F4614461D46642120A800F008FF16B1FD
:1016D000012E10D107E03B464FA250A120A8009454
:1016E00000F094FF08E03B4650A24CA120A80094D3
:1016F00000F08CFF00E000BF00BF052D06DA20AB34
:101700002A464BA102A800F081FF04E020AA4DA1C7
:1017100002A800F07BFF4FF47A634EA21DA102A83D
:10172000FFF78FFE39B0F0BD70B5BCB004460D4672
:101730001646ECB12B4601224AA11EA800F066FF16
:1017400032464DA1684600F061FF4FF4FA73002263
:1017500010A11EA8FFF775FE58B14FF4FA730022CE
:101760000CA16846FFF76DFE18B101203CB070BDBA
:101770008DE089E0000C014000480040300000206E
:1017800025730D0A00000000257300007265616476
:10179000790000004F4B000041542B52535400007D
:1017A00040420F00415400006E6F206368616E6715
:1017B0006500000041542B43574D4F44453D3100D7
:1017C00041542B43574D4F44453D320041542B4328
:1017D000574D4F44453D330041542B43574A4150E8
:1017E0003D222573222C22257322000041542B43D5
:1017F000575341505F4355523D222573222C2225D9
:1018000073222C312C25640041542B4349504D55F3
:10181000583D2564000000005443500022257322E7
:101820002C222573222C2573000000005544500003
:1018300041542B43495053544152543D25642C2567
:101840007300000041542B43495053544152543DBE
:1018500025730000414C5245415920434F4E4E459F
:101860004354000041542B4349505345525645526E
:101870003D25642C2573000041542B43495053549B
:101880004F3D25730000000000203CB070BD2B468A
:101890000022AFF230011EA800F0B8FE4FF4FA7338
:1018A0000022AFF210111EA8FFF7CBFDEDE710B537
:1018B0004FF4FA730022AFF22411B9A0FFF7C1FD73
:1018C000A0B1BBA1BD4800F015FE08B1022010BDBB
:1018D000BBA1BA4800F00EFE08B10320F7E7BBA198
:1018E000B64800F007FE08B10420F0E70020EEE75C
:1018F00010B500244FF4FA730022AFF26811A8A0CB
:10190000FFF79FFD002831D0B3A1AC4800F0F2FDF5
:1019100010B144F0010401E024F00104B2A1A74891
:1019200000F0E8FD10B144F0020401E024F00204EC
:10193000B1A1A24800F0DEFD10B144F0040401E0C2
:1019400024F00404B0A19D4800F0D4FD10B144F08F
:10195000080401E024F00804AFA1984800F0CAFD93
:1019600010B144F0100401E024F01004204610BD32
:101970002DE9F04105460F464FF4FA730022AFF20D
:10198000EC11A9A0FFF75DFDAAA18C4800F0B2FD03
:1019900006460EB1B61D02E00020BDE8F08100242D
:1019A00009E0305D2855285D222802D10020285505
:1019B00003E0601CC4B2BC42F3DB00BF0120ECE7D3
:1019C00010B54FF4FA730022AFF238219BA0FFF755
:1019D00038FD08B9002010BD4FF4FA739BA2AFF296
:1019E0004C219BA0FFF72DFDF5E710B59B4800F0BB
:1019F0006AFB9BA19B4800F09AF99B4800F063FBAF
:101A000010BD2DE9F04186B007460C4615461E462E
:101A10004FF0000847B12246AFF29421914800F000
:101A200086F94FF001081CE0052E06DAAB1C3246A1
:101A30008EA101A800F0EAFD04E0AA1C90A101A873
:101A400000F0E4FD4FF47A73002291A101A8FFF7A2
:101A5000F8FC4FF47A7300228EA12046FFF7F1FCC8
:101A60008046404606B0BDE8F0810FB470B586B040
:101A70000446DDF8305400260CB101261DE0052D8A
:101A80000ADABDF82C04C0F30E00831C2A4677A1A5
:101A900001A800F0BBFD08E0BDF82C04C0F30E0067
:101AA000821C77A101A800F0B1FD4FF47A730022E7
:101AB00077A101A8FFF7C5FC0646304606B070BC0A
:101AC0005DF814FB70B5044600253C48B0F80004EE
:101AD0006FF30E003949A1F800040846B0F800047D
:101AE00020F40040A1F8000400BF3448B0F800041E
:101AF000C00B0028F9D000203049B1F80014C1F320
:101B00000E012E4A50540CB1154605E063A12B4836
:101B100000F0F0FC00B1294D284670BD2DE9F041E0
:101B2000054664230022AFF294315EA0FFF789FCE2
:101B30002CA1224800F0DEFC8046B8F1000F09D04D
:101B40005BA11E4800F0D6FC00F10B07A8EB0700D4
:101B5000C6B202E00020BDE8F081002403E0385D59
:101B60002855601CC4B2B442F9DB0020A8550120FE
:101B7000F1E710B588B00446224650A1684600F04F
:101B800045FD41F288330022AFF2F8316846FFF795
:101B900058FC10B1012008B010BD0020FBE7000088
:101BA00041542B43495053544154555300000000B5
:101BB0005354415455533A320D0A0000300000206E
:101BC0005354415455533A330D0A00005354415471
:101BD00055533A340D0A00002B4349505354415495
:101BE00055533A302C0000002B4349505354415474
:101BF00055533A312C0000002B4349505354415463
:101C000055533A322C0000002B4349505354415451
:101C100055533A332C0000002B4349505354415440
:101C200055533A342C00000041542B43494653523B
:101C300000000000415049502C22000041542B4329
:101C400049504D4F44453D31000000003E0000002A
:101C500041542B43495053454E44000040420F002D
:101C60002B2B2B000048004020A1070041542B43A0
:101C7000495053454E443D25642C25640000000026
:101C800041542B43495053454E443D2564000000C8
:101C90003E20000053454E44204F4B002B495044FA
:101CA0000000000041542B43574C494600000000FF
:101CB00041542B43574C49460D0D0A0041542B43C8
:101CC000495041503D22257322000000F0B50346E3
:101CD0000D461646002729460A2E03D0002008701C
:101CE0002846F0BD33B9302001F8010B0020087000
:101CF0002846F6E7002B03DA2D2001F8010B5B42A2
:101D000042F210720DE093FBF2F404B937B104F122
:101D1000300001F8010B04FB123301270A2092FB6B
:101D2000F0F2002AEFDC002008702846D9E70FB453
:101D300070B586B006460CA8019073E00B98007849
:101D40005C281CD10B98401C0B9000786E2809D0A1
:101D500072280FD10D213046FEF71EFF0B98401C54
:101D60000B900BE00A213046FEF716FF0B98401C43
:101D70000B9003E00B98401C0B9000BF4BE00B98BE
:101D80000078252840D10B98401C0B9000786428DF
:101D900018D0732833D1019810C801900BE0217836
:101DA0003046FEF7F9FE00BF80213046FEF762FFA5
:101DB0000028F9D0641C20780028F0D10B98401C32
:101DC0000B9020E0019820C801900A2202A9284621
:101DD000FFF77CFF02AC0BE021783046FEF7DCFE1B
:101DE00000BF80213046FEF745FF0028F9D0641C73
:101DF00020780028F0D10B98401C0B9003E00B9842
:101E0000401C0B9000BF06E00B9810F8011B0B90D4
:101E10003046FEF7C1FE00BF80213046FEF72AFFA4
:101E20000028F9D00B980078002887D106B070BC44
:101E30005DF814FBF0B50446154600201EE0265C54
:101E40003211265C06F00F033032392A03DDD61D2D
:101E500001F8106001E001F8102003F13006F3B240
:101E6000392B05DDDE1D012707EB4007CE5503E0CA
:101E7000012606EB40068B55461C30B2A842DEDB3D
:101E8000F0BDF8B505460E46174600240AE02A5D67
:101E90006BA1684600F0BAFB06EB4400BDF80010E9
:101EA0000180641CBC42F2DBF8BD2DE9F047074617
:101EB00088469146002424E0385D00F0F1FAC5B26E
:101EC000611C785C00F0ECFAC6B2392D03DDA5F197
:101ED0003700C5B202E0A5F13000C5B2392E03DDEE
:101EE000A6F13700C6B202E0A6F13000C6B246EA5B
:101EF0000511204604EBD072521008F80210A01C05
:101F000004B24C45D8DBBDE8F0872DE9F05F804690
:101F10000D460024A146404600F0FEFA1FFA80FA62
:101F200000260027A34600BF28E018F8070000F0AD
:101F3000B7FAC4B2302C01DB392C03DD412C1CDB99
:101F4000462C1ADC412C02DBA4F1370001E0A4F19D
:101F5000300000F0FF09BBF1000F08D03146761CBD
:101F600048190178494401704FF0000B05E04FEA31
:101F70000970000EA8554FF0010B7F1C5745D4DBAC
:101F80003046BDE8F09FF0B585B006460D463046B8
:101F900000F0C2FA074614222BA1684600F086FA28
:101FA000002416E0305D694601EB2010007804EB58
:101FB00044016854305D00F00F001DF8001004EB80
:101FC0004400401C2954202104EB4400801C295467
:101FD000641CBC42E6DB002007EB4701685407EBBA
:101FE000470005B0F0BD002805DB092803DC00F13F
:101FF0003001C8B208E00A2805DB0F2803DC00F135
:102000003701C8B200E0FF207047302805DB3928CF
:1020100003DCA0F13001C8B210E0412805DB4628FE
:1020200003DCA0F13701C8B208E0612805DB6628AF
:1020300003DCA0F15701C8B200E0FF2070470000A8
:102040002530325800000000303132333435363715
:1020500038394142434445460000000030B5274826
:102060000068274AB0FBF2F1B1F1807F01D3012073
:102070001DE021F07F40401E4FF0E02250615017DC
:102080000F22002807DA13071D0E1E4B00F00F0465
:10209000241F1D5503E013071C0E1B4B1C5400BFCF
:1020A00000204FF0E022906107201061002008B16D
:1020B00000BFFEE74FF0E020006920F001004FF084
:1020C000E021086130BD01B51049009808604FF06B
:1020D000E020006940F001004FF0E021086100BFFE
:1020E0000A4800680028FBD108BD0848006820B1F4
:1020F00006480068401E0549086070471800002027
:1021000040420F0018ED00E000E400E01400002061
:1021100008B525208DF8000000208DF801008DF80D
:10212000020001208DF803006846FEF710F808BD94
:1021300000B585B001218803FEF78EFB0121042044
:10214000FEF78AFB4FF40070ADF8100018208DF8F0
:10215000130003208DF8120004A92948FEF7C0F8E7
:102160004FF48060ADF8100004208DF8130004A92E
:102170002348FEF7B5F84FF4E13000900020ADF8A9
:102180000400ADF80600ADF80800ADF80C000C2016
:10219000ADF80A0069461B48FEF705FC012240F233
:1021A00025511848FEF797FC012240F224411548BA
:1021B000FEF791FCFFF7ACFF01211248FEF77FFC10
:1021C00005B000BD70B504460D46E1B20D48FEF7FE
:1021D000E3FC00BF80210B48FEF74CFD0028F9D03E
:1021E000204670BD10B5044600BF20210548FEF70B
:1021F00041FD0028F9D00348FEF7D2FC10BD0000D5
:10220000000801400038014008B526208DF8000084
:1022100000208DF801008DF8020001208DF80300E8
:102220006846FDF794FF08BD00B585B0012148045C
:10223000FEF71FFB01210420FEF70EFB0420ADF882
:10224000100018208DF8130003208DF8120004A947
:102250001948FEF745F80820ADF8100004208DF865
:10226000130004A91448FEF73BF84FF4E130009046
:102270000020ADF80400ADF80600ADF80800ADF898
:102280000C000C20ADF80A0069460C48FEF78BFBE9
:10229000012240F224410948FEF71DFC012240F2D0
:1022A00025510648FEF717FCFFF7AEFF0121034852
:1022B000FEF705FC05B000BD0008014000440040E9
:1022C0000CB50020019000906C48006840F480300C
:1022D0006A49086000BF6948006800F40030009057
:1022E0000198401C0190009818B90198B0F5A06FB2
:1022F000F1D16248006800F4003010B10120009074
:1023000001E0002000900098012843D15C4800685B
:1023100040F010005A4908600846006820F00300A9
:1023200008600846006840F00200086053484068B2
:10233000524948600846406848600846406840F492
:10234000806048600846406820F47C104860084679
:10235000406840F4E81048600846006840F080702B
:10236000086000BF4548006800F000700028F9D000
:102370004248406820F003004049486008464068F1
:1023800040F00200486000BF3C48406800F00C008C
:102390000828F9D10CBD10B5FFF792FF10BD10B59C
:1023A0003648006840F0010034490860084640683B
:1023B00034490840314948600846006832490840BD
:1023C0002E4908600846006820F48020086008460E
:1023D000406820F4FE0048604FF41F008860FFF75B
:1023E000DAFF4FF000602949086010BD10B50021E8
:1023F00000200022214B5B6803F00C0121B104296D
:1024000006D0082928D107E0214B224C236027E081
:102410001F4B204C236023E0184B5B6803F47010C3
:10242000164B5B6803F48032022303EB904022B921
:10243000194B4343174C23600DE0104B5B6803F4CA
:10244000003323B1144B4343124C236003E0104B81
:102450004343104C236003E00D4B0E4C236000BF40
:1024600000BF064B5B68C3F303130C4CE15C094BE4
:102470001B68CB40074C236010BD000000100240D9
:10248000002002400000FFF8FFFFF6FE08ED00E02C
:1024900000127A001800002000093D001C000020F6
:1024A000A0F16101192900D82038704740EA0103E2
:1024B0009B0703D009E008C9121F08C0042AFAD2FA
:1024C00003E011F8013B00F8013B521EF9D27047BE
:1024D000D2B201E000F8012B491EFBD27047002266
:1024E000F6E710B513460A4604461946FFF7F0FF13
:1024F000204610BD30B505462A460B4612F8010BA2
:1025000013F8014B08B1A042F8D01CB1002802D04A
:102510006D1CF1E7284630BD421C10F8011B002954
:10252000FBD1801A70472DE9F05F054600209246E6
:102530009B4688460646814640241BE02846414685
:102540004746224600F041F853465A46C01A914188
:1025500010D311461846224600F028F82D1A67EBD2
:1025600001084F4622460120002100F01FF817EB1A
:1025700000094E41201EA4F10104DFDC484631462B
:102580002A464346BDE8F09F064C074D06E0E0684A
:1025900040F0010394E8070098471034AC42F6D3AA
:1025A000FDF7CAFDC02A0008E02A0008202A04DB43
:1025B000203A00FA02F1002070479140C2F1200356
:1025C00020FA03F3194390407047202A04DB203A95
:1025D00021FA02F00021704721FA02F3D040C2F143
:1025E0002002914008431946704700000FB4054B84
:1025F00010B503A9044A029800F02CF810BC5DF84D
:1026000014FB0000C52100082C0000200FB4084B6B
:1026100010B504A902AA039800F01CF8044602A908
:10262000002000F048FA204610BC5DF814FB0000C2
:10263000B72A000802E008C8121F08C1002AFAD110
:1026400070477047002001E001C1121F002AFBD132
:10265000704700002DE9FF4F8DB00F46054600265C
:1026600006E025280BD0DDE90F1290476D1C761C83
:1026700028780028F5D111B03046BDE8F08F00244D
:10268000A246A1460122EC4900E0044315F8013FAF
:10269000203B02FA03F00842F7D128782A2810D00C
:1026A0006FF02F022878A0F13001092914D80AEB25
:1026B0008A0102EB410144F0020400EB010A6D1CA7
:1026C000F0E701CF5FEA000A03D544F40054CAF1F1
:1026D000000A44F002046D1C28782E2817D115F842
:1026E000010F44F004042A280ED06FF02F0228783E
:1026F000A0F1300109290AD809EB890102EB410157
:1027000000EB01096D1CF2E757F8049B6D1C28785B
:102710006C280FD006DC4C2817D068280DD06A280A
:1027200014D104E0742810D07A280FD10DE044F4BD
:1027300000140AE044F4801401E044F44014697881
:10274000814202D104F580146D1C6D1C2A786E2A1A
:102750001FD00CDC632A31D004DC002A8BD0582A2D
:1027600011D1A3E0642A68D0692A0CD165E0732AEC
:102770002ED004DC6F2A73D0702A04D19BE0752A16
:102780006FD0782A6ED01046DDE90F129047761C84
:1027900050E1C4F30250022806D0032809D00428CF
:1027A00001CF09D0066045E101CFF117C0E9006112
:1027B00040E101CF06803DE106703BE117F8040BD4
:1027C0008DF8000000208DF80100EB46012003E0A9
:1027D00057F804BB4FF0FF3061074FF0000102D4FF
:1027E0000DE008F10101884649450FDA8045F8DB24
:1027F0001BF808100029F4D108E008F1010188460F
:102800008142FADB1BF808100029F6D1DDE90F231D
:10281000AAEB08008146214600F036F9304400EB6F
:10282000080604E0DDE90F121BF8010B9047B8F130
:102830000108F7D221464846F7E00A21C4F30253C3
:102840004FF0000B0891022B04D001CFC117032BCE
:1028500009D00AE0FF1D27F00707F7E8020108E0AA
:1028600032E01FE020E000B2C117042B01D140B2DA
:10287000C117031E71F1000307DA4FF0000CD0EB13
:102880000C006CEB01012D2302E0230504D52B2362
:102890008DF82430012303E0E30701D02023F7E77C
:1028A000984658E00A2110E010210EE010204FF069
:1028B000000B08900CE010214FF0000B44F00404D2
:1028C0004FF00809089103E008214FF0000B089130
:1028D000C4F30253022B04D001CF0021032B06D0F6
:1028E00006E0FF1D27F00707F7E8020103E080B2CA
:1028F000042B00D1C0B24FF0000823072BD5702A5B
:1029000007D0DDF820C08CF0100C5CEA0B0C05D071
:102910000EE040238DF82430012308E050EA010343
:1029200006D030238DF824308DF8252002239846D8
:10293000DDF820C08CF0080C5CEA0B0C0BD150EADF
:10294000010301D1630706D530238DF824304FF001
:102950000108A9F10109582A04D038A20B9208AA4B
:102960000A920BE03AA2F9E75B46089AFFF7DBFD13
:102970000B9B9B5C0A9A521E0A92137050EA01024A
:10298000F2D10A98ADEB000000F1200B600702D5F0
:1029900024F4803401E04FF00109D94502DDA9EBB0
:1029A0000B0000E0002000EB0B0141440890AAEB73
:1029B000010AE00306D4DDE90F232146504600F06A
:1029C00063F806444FF0000908E009A911F809006E
:1029D000DDE90F12904709F10109761CC145F4DBCE
:1029E000E0030CD5DDE90F232146504600F04CF8FA
:1029F000064404E0DDE90F1230209047761C089968
:102A0000481E08900029F5DC08E00A980A99007829
:102A1000491C0A91DDE90F129047761CBBF10001B9
:102A2000ABF1010BF1DC21465046DDE90F2300F04C
:102A300019F806446D1C1BE60928010030313233B9
:102A400034353637383961626364656600000000EA
:102A500030313233343536373839414243444546D4
:102A6000000000002DE9F041044600251E461746EF
:102A7000880404D405E039462020B0476D1C641E4C
:102A8000F9D52846BDE8F0812DE9F041044600253E
:102A90001E469046C80301D5302700E02027880451
:102AA00004D505E041463846B0476D1C641EF9D593
:102AB0002846BDE8F0810A68531C0B60107070470F
:102AC000E02A000800000020300000003426000842
:102AD000102B0008300000200810000044260008D9
:102AE00000000000010203040102030406070809B4
:102AF000020406080000000000A24A0400000000D2
:102B0000000000000102030406070809000000009D
:0400000508000131BD
:00000001FF
