:020000040800F2
:10000000380C0020290D0008310F0008330F0008BC
:10001000370F00083B0F00083F0F000800000000EA
:10002000000000000000000000000000430F000876
:10003000450F000800000000470F0008490F0008A6
:10004000430D0008430D0008430D0008430D000850
:10005000430D0008430D0008430D0008430D000840
:10006000430D0008430D0008430D0008430D000830
:10007000430D0008430D0008430D0008430D000820
:10008000430D0008430D0008430D0008430D000810
:10009000430D0008430D0008430D0008430D000800
:1000A000430D0008430D0008430D0008430D0008F0
:1000B000430D0008430D0008430D0008430D0008E0
:1000C000430D0008430D0008430D0008430D0008D0
:1000D000430D0008510F0008430D0008D30F00081E
:1000E000430D0008430D0008430D0008430D0008B0
:1000F000430D0008430D0008430D0008430D0008A0
:10010000430D0008430D0008430D0008430D00088F
:10011000430D0008430D0008430D0008430D00087F
:10012000430D0008430D0008430D0008430D00086F
:10013000DFF80CD001F074FF004800474D0D0008B7
:10014000380C002031490143314A1160704770B5C5
:10015000002100230F22C47804B32D4C246804F43A
:10016000E064C4F5E064210AC1F10403CA404478A4
:1001700004FA03F18478144021430901254C0678E0
:10018000A155047804F01F050124AC4005786D11D9
:10019000AD0005F1E025C5F8004109E0047804F060
:1001A0001F050124AC401C4D0678761145F8264009
:1001B00070BD1A4A0A400243154B1B1F1A60704754
:1001C00039B1134A121D12680243114B1B1D1A60EC
:1001D00006E00F4A121D126882430D4B1B1D1A6068
:1001E0007047042808D14FF0E021096941F004016B
:1001F0004FF0E022116107E04FF0E021096921F0A2
:1002000004014FF0E0221161704700000000FA0580
:100210000CED00E000E400E080E100E080FFFF1F63
:1002200010B50446CC48844208D10121042000F0D6
:100230002DFB0021042000F029FB46E0C748844242
:1002400008D10121082000F021FB0021082000F046
:100250001DFB3AE0C248844208D10121102000F081
:1002600015FB0021102000F011FB2EE0BD48844258
:1002700008D10121202000F009FB0021202000F0FE
:1002800005FB22E0B848844208D10121402000F05B
:10029000FDFA0021402000F0F9FA16E0B34884424C
:1002A00008D10121802000F0F1FA0021802000F027
:1002B000EDFA0AE0AE48844207D10121801500F032
:1002C000E5FA0021A01500F0E1FA10BD10B50121FA
:1002D000084600F0DBFA0021012000F0D7FA10BD3B
:1002E0002DE9F041024600250026002000230024CD
:1002F000002791F803C00CF00F0591F803C00CF033
:10030000100CBCF1000F03D091F802C04CEA0505B7
:1003100091F800C0BCF1000F31D0146800202BE030
:100320004FF0010C0CFA00F3B1F800C00CEA030620
:100330009E4220D183004FF00F0C0CFA03F7BC4310
:1003400005FA03FC4CEA040491F803C0BCF1280F41
:1003500006D14FF0010C0CFA00FCC2F814C00AE000
:1003600091F803C0BCF1480F05D14FF0010C0CFA15
:1003700000FCC2F810C0401C0828D1D31460B1F8AA
:1003800000C0BCF1FF0F34DD546800202EE000F106
:10039000080C4FF0010808FA0CF3B1F800C00CEAA1
:1003A00003069E4221D183004FF00F0C0CFA03F795
:1003B000BC4305FA03FC4CEA040491F803C0BCF109
:1003C000280F05D100F1080C08FA0CF8C2F81480C7
:1003D00091F803C0BCF1480F07D100F1080C4FF0B1
:1003E000010808FA0CF8C2F81080401C0828CED387
:1003F0005460BDE8F0814FF6FF71018002218170E9
:100400000421C17070470246002093680B400BB175
:10041000012000E0002070470146886880B27047E4
:1004200002460020D3680B400BB1012000E0002001
:1004300070470146C86880B27047016170474161EA
:1004400070470AB1016100E041617047C1607047C7
:100450004FF480320A4382618161826182698269DC
:10046000704702460020434B18684FF680731840CF
:1004700040EA021008433F4B186070473E49C8618C
:100480007047F0B50A46002300240021002500F043
:100490000046B6F1004F02D1364EF16901E0354E0B
:1004A0007168C0F3034583B200F44016B6F5401FEF
:1004B00008D121F070612F4E766826F070662D4FBE
:1004C0007E6012E000F48016B6F5801F06D1032688
:1004D00006FA05F4A14341F0706106E0460D3601CD
:1004E00003FA06F6B14341F0706122B1460D3601C0
:1004F00003FA06F6314300F00046B6F1004F02D190
:100500001C4EF16101E01B4E7160F0BD30B5002260
:100510008B071C0F0F2303FA04F2164B08338C10C1
:1005200053F824309343134C08348D1044F825308D
:1005300023468C1053F824308C07240F00FA04F45F
:1005400023430C4C08348D1044F8253030BD0A4943
:10055000DC3108607047000000080140000C0140D9
:10056000001001400014014000180140001C01402F
:10057000002001400000014000002042DF480068E8
:1005800040F00100DD49086008464068DC49084049
:10059000DA49486008460068DA490840D7490860E7
:1005A0000846006820F4802008600846406820F46F
:1005B000FE0048604FF41F0088607047CF4909680B
:1005C00021F48031CD4A11601146096821F480215F
:1005D0001160B0F5803F03D0B0F5802F0ED106E05A
:1005E000C649096841F48031C44A116007E0C34933
:1005F000096841F4A021C14A116000E000BF00BFBA
:10060000704710B501460022002300204A11012A3C
:1006100002D1BA4C236806E0022A02D1B74C236A01
:1006200001E0B64C636A01F01F02012494401C40B3
:100630000CB1012000E0002010BD38B50020009072
:100640000024002500BF3120FFF7DBFF054600989E
:10065000401C00900098B0F5A06F01D0002DF2D0A2
:100660003120FFF7CEFF08B1012400E0002420462E
:1006700038BD01460020A14A106820F0F80040EA89
:10068000C10010607047A049086070470246002012
:100690009A4B586820F47C1042EA01031843974BA8
:1006A0005860704798490866704701460020934A91
:1006B000506820F003000843506070478F4840683E
:1006C00000F00C007047014600208C4A506820F072
:1006D000F00008435060704701460020874A506888
:1006E00020F4E06008435060704701460020834AD0
:1006F000506820F4605040EAC1005060704729B152
:100700007E4A527A02437D4B5A7204E07B4A527A07
:1007100082437A4B5A7270477B49D83108607047E0
:1007200001460020754A506820F44040084350605C
:1007300070470021714A20321170704A82F82010EF
:10074000012802D004280AD104E001216B4A20329A
:10075000117005E00521694A2032117000E000BFE8
:1007600000BF70476949086070476449096A0143DE
:10077000624A11627047654944390860704730B574
:1007800000210022002400235C4D6D6805F00C015F
:1007900021B1042905D0082923D105E05C4D05606D
:1007A00022E05B4D05601FE0544D6D6805F470124A
:1007B000524D6D6805F48034022505EB92421CB958
:1007C000544D554305600BE04C4D6D6805F4003504
:1007D0001DB1504D5543056002E04D4D5543056038
:1007E00002E04B4D056000BF00BF444D6D6805F051
:1007F000F0010909484D6B5C0568DD4045603F4DDF
:100800006D6805F4E061090A434D6B5C4568DD40A5
:1008100085603A4D6D6805F46051C90A3E4D6B5CC8
:100820004568DD40C560354D6D6805F44041890B74
:100830003A4D6B5CC568B5FBF3F5056130BD29B178
:100840002E4A526902432D4B5A6104E02B4A5269E9
:1008500082432A4B5A61704729B1284A9269024360
:10086000264B9A6104E0254A92698243234B9A61A0
:10087000704729B1214AD2690243204BDA6104E072
:100880001E4AD26982431D4BDA61704729B11B4A67
:10089000D2680243194BDA6004E0184AD2688243F6
:1008A000164BDA60704729B1144A12690243134BA0
:1008B0001A6104E0114A12698243104B1A617047B1
:1008C00012494039086070470F49C86470470B49A6
:1008D000C87170470948406A40F080700749486213
:1008E000704701460020054A92680A400AB101207B
:1008F00000E00020704701498872704700100240F4
:100900000000FFF8FFFFF6FE000042428004424272
:1009100000127A0000093D000000002010000020B5
:1009200010B50446FB48844209D101218803FFF732
:10093000ADFF00214FF48040FFF7A8FF32E0F648FA
:10094000844209D101214804FFF7ADFF00214FF493
:100950000030FFF7A8FF25E0F048844209D10121CB
:100960008804FFF7A0FF00214FF48020FFF79BFFD2
:1009700018E0EB48844209D10121C804FFF793FF36
:1009800000214FF40020FFF78EFF0BE0E548844282
:1009900008D101210805FFF786FF00214FF48010E0
:1009A000FFF781FF10BD2DE9F04786B005460E46E2
:1009B0000024A24600BFA1460027B08900B100BFB5
:1009C0002F462C8A4CF6FF700440F08804432C829A
:1009D000AC894EF6F3100440B08831890843718920
:1009E00008430443AC81AC8A4FF6FF400440B08911
:1009F0000443AC8201A8FFF7C2FEC648874202D179
:100A0000DDF810A001E0DDF80CA0A88900F400409A
:100A100040B10AEBCA0000EB0A1031684900B0FB94
:100A2000F1F807E00AEBCA0000EB0A103168890010
:100A3000B0FBF1F86420B8FBF0F004012009642158
:100A400001FB1089A88900F4004040B1322000EB7E
:100A5000C900B0FBF1F000F00700044308E03220C9
:100A600000EB09106421B0FBF1F000F00F0004432B
:100A70002C8106B0BDE8F0874FF4165101600021CB
:100A80008180C18001810C214181002181817047D9
:100A900010B502460020108A4FF2FF0318400B8861
:100AA0004C8823438C882343CC88234318431082EB
:100AB00010BD0021018041808180C180704721B13B
:100AC000828942F40052828104E082894DF6FF73EC
:100AD0001A4082817047F0B50346002400260025A5
:100AE000002040F66A17B94200D100BF1846C1F392
:100AF000421401F01F06012707FA06F5012C01D167
:100B00000C3004E0022C01D1103000E014301AB196
:100B100007682F43076002E00768AF430760F0BD36
:100B20001AB1838A0B43838202E0838A8B438382D8
:100B30007047028A4FF6F0731A400282028A0A4313
:100B40000282704782894FF2FF731A408281828944
:100B50000A438281704721B1828942F00202828178
:100B600004E082894FF6FD731A4082817047028A41
:100B70004FF6DF731A400282028A0A4302827047EC
:100B800021B1028A42F48042028204E0028A4BF6DA
:100B9000FF731A4002827047C1F3080282807047D7
:100BA00001468888C0F308007047818941F001013F
:100BB00081817047028BD2B20283028B42EA01220A
:100BC00002837047028B02F47F420283028B0A4346
:100BD0000283704721B1828A42F02002828204E0BF
:100BE000828A4FF6DF731A408282704721B1828A6F
:100BF00042F01002828204E0828A4FF6EF731A40BC
:100C00008282704721B1828A42F00802828204E027
:100C1000828A4FF6F7731A408282704721B1828927
:100C200042F40042828103E08289C2F30E02828193
:100C3000704721B1828A42F40062828204E0828A93
:100C40004FF2FF731A4082827047828A4FF6FB731D
:100C50001A408282828A0A438282704721B1828A44
:100C600042F00202828204E0828A4FF6FD731A404B
:100C70008282704702460020B1F5007F00D100BF9C
:100C800013880B400BB1012000E00020704701F4F5
:100C90000072B2F5007F00D100BFCA4302807047E6
:100CA00070B50246002400230025002040F66A1695
:100CB000B14200D100BFC1F3421501F01F0301266C
:100CC00006FA03F3012D02D19689334006E0022D86
:100CD00002D1168A334001E0968A33400C12012675
:100CE00006FA04F41688344013B10CB1012000E078
:100CF000002070BD10B50022002340F66A14A14206
:100D000000D100BF0A1201249440A3B2DC43048046
:100D100010BD000000380140004400400048004081
:100D2000004C0040005000400648804706480047FD
:100D3000FEE7FEE7FEE7FEE7FEE7FEE7FEE7FEE78B
:100D4000FEE7FEE75B1E0008310100089AB064214F
:100D500001A801F010F900F056FF00F0CFFF00F0FD
:100D6000E7FE00F001FA00F073FA022000F08CFABE
:100D700000BF55A000F036FD0028FAD000BF0022C9
:100D800054A157A000F0B5FA0028F8D0012000F0D7
:100D9000C5FA00BF55A257A1012000F00BFB0028A7
:100DA000F8D0142101A800F049FC01AA52A158482A
:100DB00000F0CBFD4FA257A1554800F0C6FD5948A1
:100DC000B0F800046FF30E005649A1F8000408467D
:100DD000B0F8000420F40040A1F800045248B0F834
:100DE00000046FF30E005049A1F800040846B0F863
:100DF000000420F40040A1F8000455E04948B0F890
:100E00000004C00B30B3002240F225514748FFF7E1
:100E100062FE00204349B1F80014C1F30E01414ABB
:100E200050543AA13A4800F090FD3E48B0F8000412
:100E30006FF30E003B49A1F800040846B0F8000427
:100E400020F40040A1F80004012240F22551374867
:100E5000FFF741FE3448B0F80004C00B20B3002275
:100E600040F225512A48FFF736FE2F4801F0A0F83E
:100E70000446002322462C49184600F028FC2A4844
:100E8000B0F800046FF30E002749A1F800040846EB
:100E9000B0F8000420F40040A1F80004012240F260
:100EA00025511B48FFF717FEA8E70020002107E0A7
:100EB00001E04A1C91B2B1F5806FFADB421C90B29E
:100EC000B0F5806FF4DB70473139322E3136382E71
:100ED000322E3100313233343536373800000000DD
:100EE0006D696E675749464900000000313830305F
:100EF0000000000033333300E69CACE6A8A1E59D7A
:100F0000974950E59CB0E59D80E4B8BA2573000090
:100F10000038014020E7ABAFE58FA3E4B8BA7325F2
:100F20000D0A00003000002032040020004800407C
:100F3000704700BFFEE700BFFEE700BFFEE700BF4F
:100F4000FEE770477047704710B500F038FE10BDDF
:100F500038B59DF80000009040F225513F48FFF75A
:100F60009FFED8B13D48FFF71BFEC4B23C48B0F825
:100F70000004C0F30E0040F2FF3188420EDA384917
:100F8000B1F80014C1F30E00411C354AB2F8002438
:100F900061F30E023249A1F800240C5440F22441BE
:100FA0002E48FFF77DFE012812D12D48B0F800042D
:100FB00020F4004000F500402949A1F8000427482A
:100FC0000088C0B200902548001D0088C0B2009083
:100FD00038BD38B59DF80000009040F225512148F9
:100FE000FFF75EFED8B11F48FFF7DAFDC4B21E4816
:100FF000B0F80004C0F30E0040F2FF3188420EDA70
:101000001949B1F80014C1F30E00411C164AB2F898
:10101000002461F30E021449A1F800240C5440F29C
:1010200024411048FFF73CFE012816D10E48B0F8C5
:10103000000420F4004000F500400B49A1F8000432
:101040000848FFF7ADFDC4B206480088C0B2009062
:101050000448001D0088C0B2009038BD003801402F
:1010600032040020004800403000002008B54FF452
:10107000A060FFF767F827208DF8000000208DF8AA
:1010800001008DF8020001208DF803006846FFF78B
:101090005EF808BD00B585B001218804FFF7E9FBC3
:1010A00001210820FFF7D8FB4FF48060ADF8100055
:1010B00018208DF8130003208DF8120004A9F748BA
:1010C000FFF70EF94FF40060ADF8100004208DF822
:1010D000130004A9F148FFF703F94FF4E130009041
:1010E0000020ADF80400ADF80600ADF80800ADF83A
:1010F0000C000C20ADF80A006946E948FFF753FCE4
:10110000012240F22551E648FFF7E5FC012240F2BA
:101110002441E348FFF7DFFCFFF7A8FF0121E04887
:10112000FFF7CDFC05B000BD08B501210820FFF791
:1011300093FB4FF48070ADF8000010208DF8030091
:1011400003208DF802006946D448FFF7C9F8012151
:101150000820FFF781FB4FF40070ADF800006946EE
:10116000CE48FFF7BDF808BD10B5FFF7DDFFFFF76C
:1011700091FF4FF40071C948FFF75FF94FF4807198
:10118000C648FFF75CF910BD10B54FF40071C348B5
:10119000FFF755F9C34800F000FD4FF40071BF4858
:1011A000FFF74BF910BD2DE9F04106460C461546F8
:1011B0001F46BD48B0F800046FF30E00BA49A1F80D
:1011C00000043246B9A1B64800F0BFFB1CB915B9FE
:1011D0000120BDE8F0814FF47A7107FB01F000F0C7
:1011E000DCFC0020B049B1F80014C1F30E01AE4A96
:1011F00050541146AFA000F045FFB4B1ADB1214647
:10120000A94800F0C3FE08B1012000E0002040B969
:101210002946A54800F0BAFE08B1012000E00020F0
:1012200008B10120D5E70020D3E744B121469E480C
:1012300000F0ACFE08B10120CBE70020C9E7294649
:10124000994800F0A3FE08B10120C2E70020C0E7E2
:1012500010B500244FF400719048FFF7EEF896485F
:1012600000F09BFC0CE04FF4FA73002293A194A0D1
:10127000FFF799FF00B110BDFFF786FF601CC4B2F5
:101280000A2CF0DB00BFF6E710B5044624B1012CB0
:101290000AD0022C18D10FE040F6C41389A287A10E
:1012A0008BA0FFF780FF10BD40F6C41385A283A179
:1012B0008AA0FFF778FFF6E740F6C41381A27FA16A
:1012C00089A0FFF770FFEEE70020ECE730B59FB094
:1012D00004460D462B46224686A101A800F0E2FEF8
:1012E00041F28833002275A101A8FFF75CFF1FB00F
:1012F00030BD70B5A0B004460D4616462B462246BA
:1013000081A102A8009600F0CDFE4FF47A7300226E
:101310006AA102A8FFF747FF20B070BD10B586B0E4
:1013200004460CB1012000E0002002467DA101A886
:1013300000F0B8FE4FF4FA73002260A101A8FFF795
:1013400032FF06B010BDF0B5B9B006460F461446E0
:101350001D46642120A800F00EFE16B1012E10D10A
:1013600007E03B4673A274A120A8009400F09AFE07
:1013700008E03B4674A270A120A8009400F092FE01
:1013800000E000BF00BF052D06DA20AB2A466FA1A2
:1013900002A800F087FE04E020AA71A102A800F0D4
:1013A00081FE4FF47A6372A244A102A8FFF7FBFE0C
:1013B00039B0F0BD70B5BCB004460D461646FCB160
:1013C0002B4601226EA11EA800F06CFE324671A1D0
:1013D000684600F067FE4FF4FA73002237A11EA89A
:1013E000FFF7E1FE50B14FF4FA73002233A16846D3
:1013F000FFF7D9FE10B101203CB070BD0020FBE723
:101400002B4600225EA11EA800F04CFE4FF4FA739A
:1014100000222AA11EA8FFF7C6FEEDE710B54FF483
:10142000FA73002225A15FA0FFF7BDFEA0B161A164
:101430001D4800F0ABFD08B1022010BD60A11A48A4
:1014400000F0A4FD08B10320F7E760A1164800F002
:101450009DFD08B10420F0E70020EEE710B5002460
:101460004FF4FA73002215A14EA0FFF79CFE00284E
:1014700012D059A10C4800F089FD10B144F00104CC
:1014800001E024F0010458A1074800F07FFD10B1ED
:1014900044F00204B2E0AFE0CEE00000000C0140F6
:1014A0000048004020A107003000002025730D0AED
:1014B000000000002573000040420F004F4B000069
:1014C000415400006E6F206368616E676500000024
:1014D00041542B43574D4F44453D310041542B431C
:1014E000574D4F44453D320041542B43574D4F44D7
:1014F000453D330041542B43574A41503D2225730B
:10150000222C22257322000041542B435753415073
:101510005F4355523D222573222C222573222C3104
:101520002C25640041542B4349504D55583D2564AA
:101530000000000054435000222573222C22257302
:10154000222C2573000000005544500041542B43C9
:10155000495053544152543D25642C2573000000DA
:1015600041542B43495053544152543D257300007C
:10157000414C5245415920434F4E4E454354000083
:1015800041542B4349505345525645523D25642CF6
:101590002573000041542B43495053544F3D25734C
:1015A0000000000041542B434950535441545553BB
:1015B000000000005354415455533A320D0A0000C4
:1015C0005354415455533A330D0A00005354415477
:1015D00055533A340D0A00002B434950535441549B
:1015E00055533A302C0000002B434950535441547A
:1015F00055533A312C00000024F0020484A188489D
:1016000000F0C4FC10B144F0040401E024F0040430
:1016100084A1834800F0BAFC10B144F0080401E052
:1016200024F0080483A17E4800F0B0FC10B144F01F
:10163000100401E024F01004204610BD2DE9F04113
:1016400005460F464FF4FA730022AFF290117DA0C9
:10165000FFF7A9FD7EA1724800F098FC06460EB186
:10166000B61D02E00020BDE8F081002409E0305DF5
:101670002855285D222802D10020285503E0601C4F
:10168000C4B2BC42F3DB00BF0120ECE710B54FF45D
:10169000FA730022AFF2DC116FA0FFF784FD08B9E6
:1016A000002010BD4FF4FA736FA2AFF2F0116FA0DB
:1016B000FFF779FDF5E710B56F4800F06EFA6FA1FE
:1016C0006F4800F042F96F4800F067FA10BD2DE94D
:1016D000F04186B007460C4615461E464FF00008FE
:1016E00047B12246AFF23421654800F02EF94FF0A1
:1016F00001081CE0052E06DAAB1C324662A101A8E7
:1017000000F0D0FC04E0AA1C64A101A800F0CAFC0F
:101710004FF47A73002265A101A8FFF744FD4FF44E
:101720007A73002262A12046FFF73DFD80464046C5
:1017300006B0BDE8F08170B5044600253848B0F821
:1017400000046FF30E003649A1F800040846B0F813
:10175000000420F40040A1F8000400BF3048B0F8B5
:101760000004C00B0028F9D000202D49B1F8001466
:10177000C1F30E012A4A50540CB1154605E04EA1A2
:10178000274800F003FC00B1254D284670BD2DE927
:10179000F041054664230022AFF2E02148A0FFF7A4
:1017A00002FD1EA11E4800F0F1FB8046B8F1000FBB
:1017B00009D046A11A4800F0E9FB00F10B07A8EB9D
:1017C0000700C6B202E00020BDE8F081002403E07B
:1017D000385D2855601CC4B2B442F9DB0020A8551E
:1017E0000120F1E710B588B0044622463AA16846C8
:1017F00000F058FC41F288330022AFF240316846D5
:10180000FFF7D1FC10B1012008B010BD0020FBE7AC
:101810002B4349505354415455533A322C00000045
:10182000300000202B4349505354415455533A3310
:101830002C0000002B4349505354415455533A3423
:101840002C00000041542B43494653520000000035
:10185000415049502C22000041542B4349504D4FD8
:1018600044453D31000000003E00000041542B4340
:10187000495053454E44000040420F002B2B2B0093
:101880000048004020A1070041542B4349505345D4
:101890004E443D25642C25640000000041542B4338
:1018A000495053454E443D25640000003E20000051
:1018B00053454E44204F4B002B495044000000003C
:1018C00041542B43574C49460000000041542B43E0
:1018D000574C49460D0D0A0041542B434950415085
:1018E0003D22257322000000F0B503460D46164642
:1018F000002729460A2E03D0002008702846F0BD94
:1019000033B9302001F8010B002008702846F6E7B3
:10191000002B03DA2D2001F8010B5B4242F210721A
:101920000DE093FBF2F404B937B104F1300001F893
:10193000010B04FB123301270A2092FBF0F2002A6C
:10194000EFDC002008702846D9E70FB470B586B0E8
:1019500006460CA8019073E00B9800785C281CD117
:101960000B98401C0B9000786E2809D072280FD17C
:101970000D213046FFF710F90B98401C0B900BE03F
:101980000A213046FFF708F90B98401C0B9003E042
:101990000B98401C0B9000BF4BE00B98007825285B
:1019A00040D10B98401C0B900078642818D0732805
:1019B00033D1019810C801900BE021783046FFF731
:1019C000EBF800BF80213046FFF754F90028F9D02A
:1019D000641C20780028F0D10B98401C0B9020E06C
:1019E000019820C801900A2202A92846FFF77CFF2F
:1019F00002AC0BE021783046FFF7CEF800BF802123
:101A00003046FFF737F90028F9D0641C2078002809
:101A1000F0D10B98401C0B9003E00B98401C0B90EE
:101A200000BF06E00B9810F8011B0B903046FFF743
:101A3000B3F800BF80213046FFF71CF90028F9D029
:101A40000B980078002887D106B070BC5DF814FBB5
:101A5000F0B50446154600201EE0265C3211265CD7
:101A600006F00F033032392A03DDD61D01F810606D
:101A700001E001F8102003F13006F3B2392B05DD47
:101A8000DE1D012707EB4007CE5503E0012606EBDC
:101A900040068B55461C30B2A842DEDBF0BDF8B5DF
:101AA00005460E46174600240AE02A5D1EA1684638
:101AB00000F0F8FA06EB4400BDF800100180641C49
:101AC000BC42F2DBF8BD2DE9F04707468846914657
:101AD000002424E0385D00F041FAC5B2611C785C56
:101AE00000F03CFAC6B2392D03DDA5F13700C5B2CE
:101AF00002E0A5F13000C5B2392E03DDA6F13700B2
:101B0000C6B202E0A6F13000C6B246EA0511204690
:101B100004EBD072521008F80210A01C04B24C451D
:101B2000D8DBBDE8F0870000253032580000000007
:101B300030B527480068274AB0FBF2F1B1F1807F49
:101B400001D301201DE021F07F40401E4FF0E02234
:101B5000506150170F22002807DA13071D0E1E4B85
:101B600000F00F04241F1D5503E013071C0E1B4B30
:101B70001C5400BF00204FF0E0229061072010614C
:101B8000002008B100BFFEE74FF0E020006920F020
:101B900001004FF0E021086130BD01B51049009807
:101BA00008604FF0E020006940F001004FF0E021B4
:101BB000086100BF0A4800680028FBD108BD08483A
:101BC000006820B106480068401E0549086070475B
:101BD0001800002040420F0018ED00E000E400E093
:101BE0001400002008B525208DF8000000208DF895
:101BF000010002208DF8020001208DF803006846E4
:101C0000FEF7A5FA08BD00B585B001218803FEF7EF
:101C100023FE01210420FEF71FFE4FF40070ADF8F3
:101C2000100018208DF8130003208DF8120004A96D
:101C30002848FEF755FB4FF48060ADF810000420F3
:101C40008DF8130004A92348FEF74AFB4FF4E13056
:101C500000900020ADF80400ADF80600ADF80800D3
:101C6000ADF80C000C20ADF80A0069461A48FEF7E2
:101C70009AFE012240F225511748FEF72CFF01225F
:101C800040F224411448FEF726FFFFF7ABFF012185
:101C90001148FEF714FF05B000BD70B504460D46AF
:101CA000E1B20D48FEF778FF00BF80210A48FEF739
:101CB000E1FF0028F9D0204670BD10B5044600BFF2
:101CC00020210548FEF7D6FF0028F9D00248FEF78C
:101CD00067FF10BD000801400038014008B526200C
:101CE0008DF8000000208DF8010001208DF8020021
:101CF0008DF803006846FEF72AFA08BD00B585B0E6
:101D000001214804FEF7B5FD01210420FEF7A4FDE2
:101D10000420ADF8100018208DF8130003208DF872
:101D2000120004A91348FEF7DBFA0820ADF81000F2
:101D300004208DF8130004A90E48FEF7D1FA4FF4E1
:101D4000E13000900020ADF80400ADF80600ADF8D9
:101D50000800ADF80C000C20ADF80A0069460648F2
:101D6000FEF721FEFFF7BAFF01210348FEF7A7FEA9
:101D700005B000BD00080140004400400CB5002043
:101D8000019000906C48006840F480306A49086017
:101D900000BF6948006800F4003000900198401CC2
:101DA0000190009818B90198B0F5A06FF1D1624880
:101DB000006800F4003010B10120009001E0002024
:101DC00000900098012843D15C48006840F0100062
:101DD0005A4908600846006820F003000860084679
:101DE000006840F00200086053484068524948606B
:101DF0000846406848600846406840F48060486093
:101E00000846406820F47C1048600846406840F46A
:101E1000E81048600846006840F08070086000BF25
:101E20004548006800F000700028F9D0424840683A
:101E300020F00300404948600846406840F0020036
:101E4000486000BF3C48406800F00C000828F9D109
:101E50000CBD10B5FFF792FF10BD10B536480068F5
:101E600040F00100344908600846406834490840A1
:101E70003149486008460068324908402E490860E8
:101E80000846006820F4802008600846406820F476
:101E9000FE0048604FF41F008860FFF7DAFF4FF044
:101EA00000602949086010BD10B500210020002203
:101EB000214B5B6803F00C0121B1042906D00829ED
:101EC00028D107E0214B224C236027E01F4B204CF8
:101ED000236023E0184B5B6803F47010164B5B68BB
:101EE00003F48032022303EB904022B9194B4343A1
:101EF000174C23600DE0104B5B6803F4003323B1F3
:101F0000144B4343124C236003E0104B4343104CEB
:101F1000236003E00D4B0E4C236000BF00BF064B57
:101F20005B68C3F303130C4CE15C094B1B68CB40AB
:101F3000074C236010BD000000100240002002404A
:101F40000000FFF8FFFFF6FE08ED00E000127A0047
:101F50001800002000093D001C000020A0F16101D4
:101F6000192900D820387047D2B201E000F8012BBF
:101F7000491EFBD270470022F6E710B513460A4609
:101F800004461946FFF7F0FF204610BD30B5054660
:101F90002A460B4612F8010B13F8014B08B1A04278
:101FA000F8D01CB1002802D06D1CF1E7284630BDE6
:101FB000421C10F8011B0029FBD1801A70472DE943
:101FC000F05F0546002092469B46884606468146BD
:101FD00040241BE0284641464746224600F041F88F
:101FE00053465A46C01A914110D31146184622460C
:101FF00000F028F82D1A67EB01084F462246012011
:10200000002100F01FF817EB00094E41201EA4F13B
:102010000104DFDC484631462A464346BDE8F09FCE
:10202000064C074D06E0E06840F0010394E8070025
:1020300098471034AC42F6D3FEF77EF858250008D6
:1020400078250008202A04DB203A00FA02F100205B
:1020500070479140C2F1200320FA03F319439040E6
:102060007047202A04DB203A21FA02F00021704751
:1020700021FA02F3D040C2F12002914008431946F0
:10208000704700000FB4054B10B503A9044A02982D
:1020900000F02CF810BC5DF814FB00009B1C00083D
:1020A0002C0000200FB4084B10B504A902AA039815
:1020B00000F01CF8044602A9002000F048FA20466F
:1020C00010BC5DF814FB00004F25000802E008C8B2
:1020D000121F08C1002AFAD170477047002001E0A2
:1020E00001C1121F002AFBD1704700002DE9FF4FEC
:1020F0008DB00F460546002606E025280BD0DDE909
:102100000F1290476D1C761C28780028F5D111B06D
:102110003046BDE8F08F0024A246A1460122EC49DA
:1021200000E0044315F8013F203B02FA03F00842A7
:10213000F7D128782A2810D06FF02F022878A0F144
:102140003001092914D80AEB8A0102EB410144F05D
:10215000020400EB010A6D1CF0E701CF5FEA000A00
:1021600003D544F40054CAF1000A44F002046D1C83
:1021700028782E2817D115F8010F44F004042A28D6
:102180000ED06FF02F022878A0F1300109290AD86B
:1021900009EB890102EB410100EB01096D1CF2E73B
:1021A00057F8049B6D1C28786C280FD006DC4C284F
:1021B00017D068280DD06A2814D104E0742810D0F4
:1021C0007A280FD10DE044F400140AE044F480149E
:1021D00001E044F440146978814202D104F580148E
:1021E0006D1C6D1C2A786E2A1FD00CDC632A31D03E
:1021F00004DC002A8BD0582A11D1A3E0642A68D0CD
:10220000692A0CD165E0732A2ED004DC6F2A73D0C2
:10221000702A04D19BE0752A6FD0782A6ED01046C0
:10222000DDE90F129047761C50E1C4F302500228FA
:1022300006D0032809D0042801CF09D0066045E163
:1022400001CFF117C0E9006140E101CF06803DE117
:1022500006703BE117F8040B8DF8000000208DF8A4
:102260000100EB46012003E057F804BB4FF0FF30BC
:1022700061074FF0000102D40DE008F1010188462A
:1022800049450FDA8045F8DB1BF808100029F4D126
:1022900008E008F1010188468142FADB1BF80810CA
:1022A0000029F6D1DDE90F23AAEB0800814621467B
:1022B00000F036F9304400EB080604E0DDE90F12C7
:1022C0001BF8010B9047B8F10108F7D221464846A8
:1022D000F7E00A21C4F302534FF0000B0891022BE0
:1022E00004D001CFC117032B09D00AE0FF1D27F04E
:1022F0000707F7E8020108E032E01FE020E000B243
:10230000C117042B01D140B2C117031E71F10003A4
:1023100007DA4FF0000CD0EB0C006CEB01012D2321
:1023200002E0230504D52B238DF82430012303E09C
:10233000E30701D02023F7E7984658E00A2110E090
:1023400010210EE010204FF0000B08900CE010213F
:102350004FF0000B44F004044FF00809089103E02B
:1023600008214FF0000B0891C4F30253022B04D054
:1023700001CF0021032B06D006E0FF1D27F0070741
:10238000F7E8020103E080B2042B00D1C0B24FF0A5
:10239000000823072BD5702A07D0DDF820C08CF069
:1023A000100C5CEA0B0C05D00EE040238DF82430B5
:1023B000012308E050EA010306D030238DF82430D1
:1023C0008DF8252002239846DDF820C08CF0080CFB
:1023D0005CEA0B0C0BD150EA010301D1630706D56F
:1023E00030238DF824304FF00108A9F10109582A53
:1023F00004D038A20B9208AA0A920BE03AA2F9E79D
:102400005B46089AFFF7DBFD0B9B9B5C0A9A521E0A
:102410000A92137050EA0102F2D10A98ADEB000063
:1024200000F1200B600702D524F4803401E04FF066
:102430000109D94502DDA9EB0B0000E0002000EB0B
:102440000B0141440890AAEB010AE00306D4DDE940
:102450000F232146504600F063F806444FF0000970
:1024600008E009A911F80900DDE90F12904709F108
:102470000109761CC145F4DBE0030CD5DDE90F232F
:102480002146504600F04CF8064404E0DDE90F1206
:1024900030209047761C0899481E08900029F5DCEA
:1024A00008E00A980A990078491C0A91DDE90F12A0
:1024B0009047761CBBF10001ABF1010BF1DC21462A
:1024C0005046DDE90F2300F019F806446D1C1BE6A9
:1024D00009280100303132333435363738396162FA
:1024E00063646566000000003031323334353637BE
:1024F0003839414243444546000000002DE9F0418F
:10250000044600251E461746880404D405E03946D3
:102510002020B0476D1C641EF9D52846BDE8F08127
:102520002DE9F041044600251E469046C80301D51A
:10253000302700E02027880404D505E041463846CE
:10254000B0476D1C641EF9D52846BDE8F0810A68C5
:10255000531C0B60107070477825000800000020A5
:1025600030000000CC200008A82500083000002022
:10257000080C0000DC200008000000000102030439
:10258000010203040607080902040608000000000F
:1025900000A24A0400000000000000000102030441
:0825A000060708090000000015
:0400000508000131BD
:00000001FF
